{
  "_format": "hh-sol-artifact-1",
  "contractName": "NFTmarketplace",
  "sourceName": "contracts/NFTmarketplace.sol",
  "abi": [
    {
      "inputs": [],
      "stateMutability": "nonpayable",
      "type": "constructor"
    },
    {
      "anonymous": false,
      "inputs": [
        {
          "indexed": true,
          "internalType": "address",
          "name": "owner",
          "type": "address"
        },
        {
          "indexed": true,
          "internalType": "address",
          "name": "approved",
          "type": "address"
        },
        {
          "indexed": true,
          "internalType": "uint256",
          "name": "tokenId",
          "type": "uint256"
        }
      ],
      "name": "Approval",
      "type": "event"
    },
    {
      "anonymous": false,
      "inputs": [
        {
          "indexed": true,
          "internalType": "address",
          "name": "owner",
          "type": "address"
        },
        {
          "indexed": true,
          "internalType": "address",
          "name": "operator",
          "type": "address"
        },
        {
          "indexed": false,
          "internalType": "bool",
          "name": "approved",
          "type": "bool"
        }
      ],
      "name": "ApprovalForAll",
      "type": "event"
    },
    {
      "anonymous": false,
      "inputs": [
        {
          "indexed": true,
          "internalType": "uint256",
          "name": "tokenId",
          "type": "uint256"
        },
        {
          "indexed": false,
          "internalType": "address",
          "name": "owner",
          "type": "address"
        },
        {
          "indexed": false,
          "internalType": "address",
          "name": "seller",
          "type": "address"
        },
        {
          "indexed": false,
          "internalType": "uint256",
          "name": "price",
          "type": "uint256"
        },
        {
          "indexed": false,
          "internalType": "bool",
          "name": "currentlyListed",
          "type": "bool"
        }
      ],
      "name": "TokenListedSuccess",
      "type": "event"
    },
    {
      "anonymous": false,
      "inputs": [
        {
          "indexed": true,
          "internalType": "address",
          "name": "from",
          "type": "address"
        },
        {
          "indexed": true,
          "internalType": "address",
          "name": "to",
          "type": "address"
        },
        {
          "indexed": true,
          "internalType": "uint256",
          "name": "tokenId",
          "type": "uint256"
        }
      ],
      "name": "Transfer",
      "type": "event"
    },
    {
      "inputs": [
        {
          "internalType": "uint256",
          "name": "price",
          "type": "uint256"
        },
        {
          "internalType": "uint256",
          "name": "_tokenid",
          "type": "uint256"
        }
      ],
      "name": "Createlistedtoken",
      "outputs": [],
      "stateMutability": "nonpayable",
      "type": "function"
    },
    {
      "inputs": [
        {
          "internalType": "string",
          "name": "tokenURI",
          "type": "string"
        },
        {
          "internalType": "uint256",
          "name": "price",
          "type": "uint256"
        }
      ],
      "name": "Createtoken",
      "outputs": [
        {
          "internalType": "uint256",
          "name": "",
          "type": "uint256"
        }
      ],
      "stateMutability": "nonpayable",
      "type": "function"
    },
    {
      "inputs": [
        {
          "internalType": "address",
          "name": "to",
          "type": "address"
        },
        {
          "internalType": "uint256",
          "name": "tokenId",
          "type": "uint256"
        }
      ],
      "name": "approve",
      "outputs": [],
      "stateMutability": "nonpayable",
      "type": "function"
    },
    {
      "inputs": [
        {
          "internalType": "address",
          "name": "owner",
          "type": "address"
        }
      ],
      "name": "balanceOf",
      "outputs": [
        {
          "internalType": "uint256",
          "name": "",
          "type": "uint256"
        }
      ],
      "stateMutability": "view",
      "type": "function"
    },
    {
      "inputs": [
        {
          "internalType": "uint256",
          "name": "tokenid",
          "type": "uint256"
        }
      ],
      "name": "executesale",
      "outputs": [],
      "stateMutability": "payable",
      "type": "function"
    },
    {
      "inputs": [],
      "name": "getAllnft",
      "outputs": [
        {
          "components": [
            {
              "internalType": "uint256",
              "name": "tokeid",
              "type": "uint256"
            },
            {
              "internalType": "address",
              "name": "owner",
              "type": "address"
            },
            {
              "internalType": "address",
              "name": "seller",
              "type": "address"
            },
            {
              "internalType": "uint256",
              "name": "price",
              "type": "uint256"
            },
            {
              "internalType": "bool",
              "name": "islisted",
              "type": "bool"
            }
          ],
          "internalType": "struct NFTmarketplace.ListToken[]",
          "name": "",
          "type": "tuple[]"
        }
      ],
      "stateMutability": "view",
      "type": "function"
    },
    {
      "inputs": [
        {
          "internalType": "uint256",
          "name": "tokenId",
          "type": "uint256"
        }
      ],
      "name": "getApproved",
      "outputs": [
        {
          "internalType": "address",
          "name": "",
          "type": "address"
        }
      ],
      "stateMutability": "view",
      "type": "function"
    },
    {
      "inputs": [],
      "name": "getLatestidtotoken",
      "outputs": [
        {
          "components": [
            {
              "internalType": "uint256",
              "name": "tokeid",
              "type": "uint256"
            },
            {
              "internalType": "address",
              "name": "owner",
              "type": "address"
            },
            {
              "internalType": "address",
              "name": "seller",
              "type": "address"
            },
            {
              "internalType": "uint256",
              "name": "price",
              "type": "uint256"
            },
            {
              "internalType": "bool",
              "name": "islisted",
              "type": "bool"
            }
          ],
          "internalType": "struct NFTmarketplace.ListToken",
          "name": "",
          "type": "tuple"
        }
      ],
      "stateMutability": "view",
      "type": "function"
    },
    {
      "inputs": [
        {
          "internalType": "uint256",
          "name": "_tokenid",
          "type": "uint256"
        }
      ],
      "name": "getListedtokenforid",
      "outputs": [
        {
          "components": [
            {
              "internalType": "uint256",
              "name": "tokeid",
              "type": "uint256"
            },
            {
              "internalType": "address",
              "name": "owner",
              "type": "address"
            },
            {
              "internalType": "address",
              "name": "seller",
              "type": "address"
            },
            {
              "internalType": "uint256",
              "name": "price",
              "type": "uint256"
            },
            {
              "internalType": "bool",
              "name": "islisted",
              "type": "bool"
            }
          ],
          "internalType": "struct NFTmarketplace.ListToken",
          "name": "",
          "type": "tuple"
        }
      ],
      "stateMutability": "view",
      "type": "function"
    },
    {
      "inputs": [],
      "name": "getMynft",
      "outputs": [
        {
          "components": [
            {
              "internalType": "uint256",
              "name": "tokeid",
              "type": "uint256"
            },
            {
              "internalType": "address",
              "name": "owner",
              "type": "address"
            },
            {
              "internalType": "address",
              "name": "seller",
              "type": "address"
            },
            {
              "internalType": "uint256",
              "name": "price",
              "type": "uint256"
            },
            {
              "internalType": "bool",
              "name": "islisted",
              "type": "bool"
            }
          ],
          "internalType": "struct NFTmarketplace.ListToken[]",
          "name": "",
          "type": "tuple[]"
        }
      ],
      "stateMutability": "view",
      "type": "function"
    },
    {
      "inputs": [
        {
          "internalType": "address",
          "name": "owner",
          "type": "address"
        },
        {
          "internalType": "address",
          "name": "operator",
          "type": "address"
        }
      ],
      "name": "isApprovedForAll",
      "outputs": [
        {
          "internalType": "bool",
          "name": "",
          "type": "bool"
        }
      ],
      "stateMutability": "view",
      "type": "function"
    },
    {
      "inputs": [],
      "name": "name",
      "outputs": [
        {
          "internalType": "string",
          "name": "",
          "type": "string"
        }
      ],
      "stateMutability": "view",
      "type": "function"
    },
    {
      "inputs": [
        {
          "internalType": "uint256",
          "name": "tokenId",
          "type": "uint256"
        }
      ],
      "name": "ownerOf",
      "outputs": [
        {
          "internalType": "address",
          "name": "",
          "type": "address"
        }
      ],
      "stateMutability": "view",
      "type": "function"
    },
    {
      "inputs": [
        {
          "internalType": "address",
          "name": "from",
          "type": "address"
        },
        {
          "internalType": "address",
          "name": "to",
          "type": "address"
        },
        {
          "internalType": "uint256",
          "name": "tokenId",
          "type": "uint256"
        }
      ],
      "name": "safeTransferFrom",
      "outputs": [],
      "stateMutability": "nonpayable",
      "type": "function"
    },
    {
      "inputs": [
        {
          "internalType": "address",
          "name": "from",
          "type": "address"
        },
        {
          "internalType": "address",
          "name": "to",
          "type": "address"
        },
        {
          "internalType": "uint256",
          "name": "tokenId",
          "type": "uint256"
        },
        {
          "internalType": "bytes",
          "name": "data",
          "type": "bytes"
        }
      ],
      "name": "safeTransferFrom",
      "outputs": [],
      "stateMutability": "nonpayable",
      "type": "function"
    },
    {
      "inputs": [
        {
          "internalType": "address",
          "name": "operator",
          "type": "address"
        },
        {
          "internalType": "bool",
          "name": "approved",
          "type": "bool"
        }
      ],
      "name": "setApprovalForAll",
      "outputs": [],
      "stateMutability": "nonpayable",
      "type": "function"
    },
    {
      "inputs": [
        {
          "internalType": "bytes4",
          "name": "interfaceId",
          "type": "bytes4"
        }
      ],
      "name": "supportsInterface",
      "outputs": [
        {
          "internalType": "bool",
          "name": "",
          "type": "bool"
        }
      ],
      "stateMutability": "view",
      "type": "function"
    },
    {
      "inputs": [],
      "name": "symbol",
      "outputs": [
        {
          "internalType": "string",
          "name": "",
          "type": "string"
        }
      ],
      "stateMutability": "view",
      "type": "function"
    },
    {
      "inputs": [
        {
          "internalType": "uint256",
          "name": "tokenId",
          "type": "uint256"
        }
      ],
      "name": "tokenURI",
      "outputs": [
        {
          "internalType": "string",
          "name": "",
          "type": "string"
        }
      ],
      "stateMutability": "view",
      "type": "function"
    },
    {
      "inputs": [
        {
          "internalType": "address",
          "name": "from",
          "type": "address"
        },
        {
          "internalType": "address",
          "name": "to",
          "type": "address"
        },
        {
          "internalType": "uint256",
          "name": "tokenId",
          "type": "uint256"
        }
      ],
      "name": "transferFrom",
      "outputs": [],
      "stateMutability": "nonpayable",
      "type": "function"
    }
  ],
  "bytecode": "0x60806040523480156200001157600080fd5b506040518060400160405280600581526020017f424c4f434b0000000000000000000000000000000000000000000000000000008152506040518060400160405280600381526020017f424c43000000000000000000000000000000000000000000000000000000000081525081600090816200008f919062000365565b508060019081620000a1919062000365565b50505033600960006101000a81548173ffffffffffffffffffffffffffffffffffffffff021916908373ffffffffffffffffffffffffffffffffffffffff1602179055506200044c565b600081519050919050565b7f4e487b7100000000000000000000000000000000000000000000000000000000600052604160045260246000fd5b7f4e487b7100000000000000000000000000000000000000000000000000000000600052602260045260246000fd5b600060028204905060018216806200016d57607f821691505b60208210810362000183576200018262000125565b5b50919050565b60008190508160005260206000209050919050565b60006020601f8301049050919050565b600082821b905092915050565b600060088302620001ed7fffffffffffffffffffffffffffffffffffffffffffffffffffffffffffffffff82620001ae565b620001f98683620001ae565b95508019841693508086168417925050509392505050565b6000819050919050565b6000819050919050565b600062000246620002406200023a8462000211565b6200021b565b62000211565b9050919050565b6000819050919050565b620002628362000225565b6200027a62000271826200024d565b848454620001bb565b825550505050565b600090565b6200029162000282565b6200029e81848462000257565b505050565b5b81811015620002c657620002ba60008262000287565b600181019050620002a4565b5050565b601f8211156200031557620002df8162000189565b620002ea846200019e565b81016020851015620002fa578190505b6200031262000309856200019e565b830182620002a3565b50505b505050565b600082821c905092915050565b60006200033a600019846008026200031a565b1980831691505092915050565b600062000355838362000327565b9150826002028217905092915050565b6200037082620000eb565b67ffffffffffffffff8111156200038c576200038b620000f6565b5b62000398825462000154565b620003a5828285620002ca565b600060209050601f831160018114620003dd5760008415620003c8578287015190505b620003d4858262000347565b86555062000444565b601f198416620003ed8662000189565b60005b828110156200041757848901518255600182019150602085019450602081019050620003f0565b8683101562000437578489015162000433601f89168262000327565b8355505b6001600288020188555050505b505050505050565b613d88806200045c6000396000f3fe60806040526004361061011f5760003560e01c80634da676d6116100a0578063a22cb46511610064578063a22cb465146103ec578063a38964e814610415578063b88d4fde14610452578063c87b56dd1461047b578063e985e9c5146104b85761011f565b80634da676d6146102f35780636352211e1461031e5780636a4801831461035b57806370a082311461038457806395d89b41146103c15761011f565b80630e938ec3116100e75780630e938ec31461022f5780630ee9cbf61461024b57806323b872dd146102765780633ef201af1461029f57806342842e0e146102ca5761011f565b806301ffc9a71461012457806306fdde031461016157806307280fad1461018c578063081812fc146101c9578063095ea7b314610206575b600080fd5b34801561013057600080fd5b5061014b60048036038101906101469190612823565b6104f5565b604051610158919061286b565b60405180910390f35b34801561016d57600080fd5b506101766105d7565b6040516101839190612916565b60405180910390f35b34801561019857600080fd5b506101b360048036038101906101ae919061296e565b610669565b6040516101c09190612a62565b60405180910390f35b3480156101d557600080fd5b506101f060048036038101906101eb919061296e565b610771565b6040516101fd9190612a8c565b60405180910390f35b34801561021257600080fd5b5061022d60048036038101906102289190612ad3565b6107b7565b005b6102496004803603810190610244919061296e565b6108ce565b005b34801561025757600080fd5b50610260610a4b565b60405161026d9190612c2a565b60405180910390f35b34801561028257600080fd5b5061029d60048036038101906102989190612c4c565b610e22565b005b3480156102ab57600080fd5b506102b4610e82565b6040516102c19190612c2a565b60405180910390f35b3480156102d657600080fd5b506102f160048036038101906102ec9190612c4c565b611050565b005b3480156102ff57600080fd5b50610308611070565b6040516103159190612a62565b60405180910390f35b34801561032a57600080fd5b506103456004803603810190610340919061296e565b611185565b6040516103529190612a8c565b60405180910390f35b34801561036757600080fd5b50610382600480360381019061037d9190612c9f565b61120b565b005b34801561039057600080fd5b506103ab60048036038101906103a69190612cdf565b6113ca565b6040516103b89190612d1b565b60405180910390f35b3480156103cd57600080fd5b506103d6611481565b6040516103e39190612916565b60405180910390f35b3480156103f857600080fd5b50610413600480360381019061040e9190612d62565b611513565b005b34801561042157600080fd5b5061043c60048036038101906104379190612ed7565b611529565b6040516104499190612d1b565b60405180910390f35b34801561045e57600080fd5b5061047960048036038101906104749190612fd4565b61156b565b005b34801561048757600080fd5b506104a2600480360381019061049d919061296e565b6115cd565b6040516104af9190612916565b60405180910390f35b3480156104c457600080fd5b506104df60048036038101906104da9190613057565b6116df565b6040516104ec919061286b565b60405180910390f35b60007f80ac58cd000000000000000000000000000000000000000000000000000000007bffffffffffffffffffffffffffffffffffffffffffffffffffffffff1916827bffffffffffffffffffffffffffffffffffffffffffffffffffffffff191614806105c057507f5b5e139f000000000000000000000000000000000000000000000000000000007bffffffffffffffffffffffffffffffffffffffffffffffffffffffff1916827bffffffffffffffffffffffffffffffffffffffffffffffffffffffff1916145b806105d057506105cf82611773565b5b9050919050565b6060600080546105e6906130c6565b80601f0160208091040260200160405190810160405280929190818152602001828054610612906130c6565b801561065f5780601f106106345761010080835404028352916020019161065f565b820191906000526020600020905b81548152906001019060200180831161064257829003601f168201915b5050505050905090565b61067161275a565b600a60008381526020019081526020016000206040518060a0016040529081600082015481526020016001820160009054906101000a900473ffffffffffffffffffffffffffffffffffffffff1673ffffffffffffffffffffffffffffffffffffffff1673ffffffffffffffffffffffffffffffffffffffff1681526020016002820160009054906101000a900473ffffffffffffffffffffffffffffffffffffffff1673ffffffffffffffffffffffffffffffffffffffff1673ffffffffffffffffffffffffffffffffffffffff168152602001600382015481526020016004820160009054906101000a900460ff1615151515815250509050919050565b600061077c826117dd565b6004600083815260200190815260200160002060009054906101000a900473ffffffffffffffffffffffffffffffffffffffff169050919050565b60006107c282611185565b90508073ffffffffffffffffffffffffffffffffffffffff168373ffffffffffffffffffffffffffffffffffffffff1603610832576040517f08c379a000000000000000000000000000000000000000000000000000000000815260040161082990613169565b60405180910390fd5b8073ffffffffffffffffffffffffffffffffffffffff16610851611828565b73ffffffffffffffffffffffffffffffffffffffff161480610880575061087f8161087a611828565b6116df565b5b6108bf576040517f08c379a00000000000000000000000000000000000000000000000000000000081526004016108b6906131fb565b60405180910390fd5b6108c98383611830565b505050565b6000600a600083815260200190815260200160002060030154905080341461092b576040517f08c379a000000000000000000000000000000000000000000000000000000000815260040161092290613267565b60405180910390fd5b6000600a600084815260200190815260200160002060020160009054906101000a900473ffffffffffffffffffffffffffffffffffffffff1690506001600a600085815260200190815260200160002060040160006101000a81548160ff02191690831515021790555033600a600085815260200190815260200160002060020160006101000a81548173ffffffffffffffffffffffffffffffffffffffff021916908373ffffffffffffffffffffffffffffffffffffffff1602179055506109f53033856118e9565b6109ff30846107b7565b8073ffffffffffffffffffffffffffffffffffffffff166108fc349081150290604051600060405180830381858888f19350505050158015610a45573d6000803e3d6000fd5b50505050565b60606000610a596007611be2565b905060008060005b83811015610b7157600182610a7691906132b6565b91503373ffffffffffffffffffffffffffffffffffffffff16600a600084815260200190815260200160002060010160009054906101000a900473ffffffffffffffffffffffffffffffffffffffff1673ffffffffffffffffffffffffffffffffffffffff161480610b4957503373ffffffffffffffffffffffffffffffffffffffff16600a600084815260200190815260200160002060020160009054906101000a900473ffffffffffffffffffffffffffffffffffffffff1673ffffffffffffffffffffffffffffffffffffffff16145b15610b5e57600183610b5b91906132b6565b92505b8080610b69906132ea565b915050610a61565b5060008267ffffffffffffffff811115610b8e57610b8d612dac565b5b604051908082528060200260200182016040528015610bc757816020015b610bb461275a565b815260200190600190039081610bac5790505b50905060008060005b86811015610e15573373ffffffffffffffffffffffffffffffffffffffff16600a6000600184610c0091906132b6565b815260200190815260200160002060010160009054906101000a900473ffffffffffffffffffffffffffffffffffffffff1673ffffffffffffffffffffffffffffffffffffffff161480610cc157503373ffffffffffffffffffffffffffffffffffffffff16600a6000600184610c7791906132b6565b815260200190815260200160002060020160009054906101000a900473ffffffffffffffffffffffffffffffffffffffff1673ffffffffffffffffffffffffffffffffffffffff16145b15610e0257600181610cd391906132b6565b91506000600a60008481526020019081526020016000209050806040518060a0016040529081600082015481526020016001820160009054906101000a900473ffffffffffffffffffffffffffffffffffffffff1673ffffffffffffffffffffffffffffffffffffffff1673ffffffffffffffffffffffffffffffffffffffff1681526020016002820160009054906101000a900473ffffffffffffffffffffffffffffffffffffffff1673ffffffffffffffffffffffffffffffffffffffff1673ffffffffffffffffffffffffffffffffffffffff168152602001600382015481526020016004820160009054906101000a900460ff161515151581525050858581518110610de657610de5613332565b5b6020026020010181905250600184610dfe91906132b6565b9350505b8080610e0d906132ea565b915050610bd0565b5082965050505050505090565b610e33610e2d611828565b82611bf0565b610e72576040517f08c379a0000000000000000000000000000000000000000000000000000000008152600401610e69906133d3565b60405180910390fd5b610e7d8383836118e9565b505050565b60606000610e906007611be2565b905060008167ffffffffffffffff811115610eae57610ead612dac565b5b604051908082528060200260200182016040528015610ee757816020015b610ed461275a565b815260200190600190039081610ecc5790505b50905060008060005b8481101561104557600182610f0591906132b6565b91506000600a60008481526020019081526020016000209050806040518060a0016040529081600082015481526020016001820160009054906101000a900473ffffffffffffffffffffffffffffffffffffffff1673ffffffffffffffffffffffffffffffffffffffff1673ffffffffffffffffffffffffffffffffffffffff1681526020016002820160009054906101000a900473ffffffffffffffffffffffffffffffffffffffff1673ffffffffffffffffffffffffffffffffffffffff1673ffffffffffffffffffffffffffffffffffffffff168152602001600382015481526020016004820160009054906101000a900460ff16151515158152505085858151811061101857611017613332565b5b6020026020010181905250838061102e906132ea565b94505050808061103d906132ea565b915050610ef0565b508294505050505090565b61106b8383836040518060200160405280600081525061156b565b505050565b61107861275a565b60006110846007611be2565b9050600a60008281526020019081526020016000206040518060a0016040529081600082015481526020016001820160009054906101000a900473ffffffffffffffffffffffffffffffffffffffff1673ffffffffffffffffffffffffffffffffffffffff1673ffffffffffffffffffffffffffffffffffffffff1681526020016002820160009054906101000a900473ffffffffffffffffffffffffffffffffffffffff1673ffffffffffffffffffffffffffffffffffffffff1673ffffffffffffffffffffffffffffffffffffffff168152602001600382015481526020016004820160009054906101000a900460ff16151515158152505091505090565b60008061119183611c85565b9050600073ffffffffffffffffffffffffffffffffffffffff168173ffffffffffffffffffffffffffffffffffffffff1603611202576040517f08c379a00000000000000000000000000000000000000000000000000000000081526004016111f99061343f565b60405180910390fd5b80915050919050565b6000821161124e576040517f08c379a0000000000000000000000000000000000000000000000000000000008152600401611245906134ab565b60405180910390fd5b6040518060a001604052808281526020013073ffffffffffffffffffffffffffffffffffffffff1681526020013373ffffffffffffffffffffffffffffffffffffffff16815260200183815260200160011515815250600a60008381526020019081526020016000206000820151816000015560208201518160010160006101000a81548173ffffffffffffffffffffffffffffffffffffffff021916908373ffffffffffffffffffffffffffffffffffffffff16021790555060408201518160020160006101000a81548173ffffffffffffffffffffffffffffffffffffffff021916908373ffffffffffffffffffffffffffffffffffffffff1602179055506060820151816003015560808201518160040160006101000a81548160ff0219169083151502179055509050506113873330836118e9565b807f9339409317fd01fabff48b703019016f49159bacc801ae872d2ca637d226e4c030338560016040516113be94939291906134cb565b60405180910390a25050565b60008073ffffffffffffffffffffffffffffffffffffffff168273ffffffffffffffffffffffffffffffffffffffff160361143a576040517f08c379a000000000000000000000000000000000000000000000000000000000815260040161143190613582565b60405180910390fd5b600360008373ffffffffffffffffffffffffffffffffffffffff1673ffffffffffffffffffffffffffffffffffffffff168152602001908152602001600020549050919050565b606060018054611490906130c6565b80601f01602080910402602001604051908101604052809291908181526020018280546114bc906130c6565b80156115095780601f106114de57610100808354040283529160200191611509565b820191906000526020600020905b8154815290600101906020018083116114ec57829003601f168201915b5050505050905090565b61152561151e611828565b8383611cc2565b5050565b60006115356007611e2e565b60006115416007611be2565b905061154d3382611e44565b6115578185611e62565b611561838261120b565b8091505092915050565b61157c611576611828565b83611bf0565b6115bb576040517f08c379a00000000000000000000000000000000000000000000000000000000081526004016115b2906133d3565b60405180910390fd5b6115c784848484611ecf565b50505050565b60606115d8826117dd565b60006006600084815260200190815260200160002080546115f8906130c6565b80601f0160208091040260200160405190810160405280929190818152602001828054611624906130c6565b80156116715780601f1061164657610100808354040283529160200191611671565b820191906000526020600020905b81548152906001019060200180831161165457829003601f168201915b505050505090506000611682611f2b565b905060008151036116975781925050506116da565b6000825111156116cc5780826040516020016116b49291906135de565b604051602081830303815290604052925050506116da565b6116d584611f42565b925050505b919050565b6000600560008473ffffffffffffffffffffffffffffffffffffffff1673ffffffffffffffffffffffffffffffffffffffff16815260200190815260200160002060008373ffffffffffffffffffffffffffffffffffffffff1673ffffffffffffffffffffffffffffffffffffffff16815260200190815260200160002060009054906101000a900460ff16905092915050565b60007f01ffc9a7000000000000000000000000000000000000000000000000000000007bffffffffffffffffffffffffffffffffffffffffffffffffffffffff1916827bffffffffffffffffffffffffffffffffffffffffffffffffffffffff1916149050919050565b6117e681611faa565b611825576040517f08c379a000000000000000000000000000000000000000000000000000000000815260040161181c9061343f565b60405180910390fd5b50565b600033905090565b816004600083815260200190815260200160002060006101000a81548173ffffffffffffffffffffffffffffffffffffffff021916908373ffffffffffffffffffffffffffffffffffffffff160217905550808273ffffffffffffffffffffffffffffffffffffffff166118a383611185565b73ffffffffffffffffffffffffffffffffffffffff167f8c5be1e5ebec7d5bd14f71427d1e84f3dd0314c0f7b2291e5b200ac8c7c3b92560405160405180910390a45050565b8273ffffffffffffffffffffffffffffffffffffffff1661190982611185565b73ffffffffffffffffffffffffffffffffffffffff161461195f576040517f08c379a000000000000000000000000000000000000000000000000000000000815260040161195690613674565b60405180910390fd5b600073ffffffffffffffffffffffffffffffffffffffff168273ffffffffffffffffffffffffffffffffffffffff16036119ce576040517f08c379a00000000000000000000000000000000000000000000000000000000081526004016119c590613706565b60405180910390fd5b6119db8383836001611feb565b8273ffffffffffffffffffffffffffffffffffffffff166119fb82611185565b73ffffffffffffffffffffffffffffffffffffffff1614611a51576040517f08c379a0000000000000000000000000000000000000000000000000000000008152600401611a4890613674565b60405180910390fd5b6004600082815260200190815260200160002060006101000a81549073ffffffffffffffffffffffffffffffffffffffff02191690556001600360008573ffffffffffffffffffffffffffffffffffffffff1673ffffffffffffffffffffffffffffffffffffffff168152602001908152602001600020600082825403925050819055506001600360008473ffffffffffffffffffffffffffffffffffffffff1673ffffffffffffffffffffffffffffffffffffffff16815260200190815260200160002060008282540192505081905550816002600083815260200190815260200160002060006101000a81548173ffffffffffffffffffffffffffffffffffffffff021916908373ffffffffffffffffffffffffffffffffffffffff160217905550808273ffffffffffffffffffffffffffffffffffffffff168473ffffffffffffffffffffffffffffffffffffffff167fddf252ad1be2c89b69c2b068fc378daa952ba7f163c4a11628f55a4df523b3ef60405160405180910390a4611bdd8383836001612111565b505050565b600081600001549050919050565b600080611bfc83611185565b90508073ffffffffffffffffffffffffffffffffffffffff168473ffffffffffffffffffffffffffffffffffffffff161480611c3e5750611c3d81856116df565b5b80611c7c57508373ffffffffffffffffffffffffffffffffffffffff16611c6484610771565b73ffffffffffffffffffffffffffffffffffffffff16145b91505092915050565b60006002600083815260200190815260200160002060009054906101000a900473ffffffffffffffffffffffffffffffffffffffff169050919050565b8173ffffffffffffffffffffffffffffffffffffffff168373ffffffffffffffffffffffffffffffffffffffff1603611d30576040517f08c379a0000000000000000000000000000000000000000000000000000000008152600401611d2790613772565b60405180910390fd5b80600560008573ffffffffffffffffffffffffffffffffffffffff1673ffffffffffffffffffffffffffffffffffffffff16815260200190815260200160002060008473ffffffffffffffffffffffffffffffffffffffff1673ffffffffffffffffffffffffffffffffffffffff16815260200190815260200160002060006101000a81548160ff0219169083151502179055508173ffffffffffffffffffffffffffffffffffffffff168373ffffffffffffffffffffffffffffffffffffffff167f17307eab39ab6107e8899845ad3d59bd9653f200f220920489ca2b5937696c3183604051611e21919061286b565b60405180910390a3505050565b6001816000016000828254019250508190555050565b611e5e828260405180602001604052806000815250612117565b5050565b611e6b82611faa565b611eaa576040517f08c379a0000000000000000000000000000000000000000000000000000000008152600401611ea190613804565b60405180910390fd5b80600660008481526020019081526020016000209081611eca91906139d0565b505050565b611eda8484846118e9565b611ee684848484612172565b611f25576040517f08c379a0000000000000000000000000000000000000000000000000000000008152600401611f1c90613b14565b60405180910390fd5b50505050565b606060405180602001604052806000815250905090565b6060611f4d826117dd565b6000611f57611f2b565b90506000815111611f775760405180602001604052806000815250611fa2565b80611f81846122f9565b604051602001611f929291906135de565b6040516020818303038152906040525b915050919050565b60008073ffffffffffffffffffffffffffffffffffffffff16611fcc83611c85565b73ffffffffffffffffffffffffffffffffffffffff1614159050919050565b600181111561210b57600073ffffffffffffffffffffffffffffffffffffffff168473ffffffffffffffffffffffffffffffffffffffff161461207f5780600360008673ffffffffffffffffffffffffffffffffffffffff1673ffffffffffffffffffffffffffffffffffffffff16815260200190815260200160002060008282546120779190613b34565b925050819055505b600073ffffffffffffffffffffffffffffffffffffffff168373ffffffffffffffffffffffffffffffffffffffff161461210a5780600360008573ffffffffffffffffffffffffffffffffffffffff1673ffffffffffffffffffffffffffffffffffffffff168152602001908152602001600020600082825461210291906132b6565b925050819055505b5b50505050565b50505050565b61212183836123c7565b61212e6000848484612172565b61216d576040517f08c379a000000000000000000000000000000000000000000000000000000000815260040161216490613b14565b60405180910390fd5b505050565b60006121938473ffffffffffffffffffffffffffffffffffffffff166125e4565b156122ec578373ffffffffffffffffffffffffffffffffffffffff1663150b7a026121bc611828565b8786866040518563ffffffff1660e01b81526004016121de9493929190613bbd565b6020604051808303816000875af192505050801561221a57506040513d601f19601f820116820180604052508101906122179190613c1e565b60015b61229c573d806000811461224a576040519150601f19603f3d011682016040523d82523d6000602084013e61224f565b606091505b506000815103612294576040517f08c379a000000000000000000000000000000000000000000000000000000000815260040161228b90613b14565b60405180910390fd5b805181602001fd5b63150b7a0260e01b7bffffffffffffffffffffffffffffffffffffffffffffffffffffffff1916817bffffffffffffffffffffffffffffffffffffffffffffffffffffffff1916149150506122f1565b600190505b949350505050565b60606000600161230884612607565b01905060008167ffffffffffffffff81111561232757612326612dac565b5b6040519080825280601f01601f1916602001820160405280156123595781602001600182028036833780820191505090505b509050600082602001820190505b6001156123bc578080600190039150507f3031323334353637383961626364656600000000000000000000000000000000600a86061a8153600a85816123b0576123af613c4b565b5b04945060008503612367575b819350505050919050565b600073ffffffffffffffffffffffffffffffffffffffff168273ffffffffffffffffffffffffffffffffffffffff1603612436576040517f08c379a000000000000000000000000000000000000000000000000000000000815260040161242d90613cc6565b60405180910390fd5b61243f81611faa565b1561247f576040517f08c379a000000000000000000000000000000000000000000000000000000000815260040161247690613d32565b60405180910390fd5b61248d600083836001611feb565b61249681611faa565b156124d6576040517f08c379a00000000000000000000000000000000000000000000000000000000081526004016124cd90613d32565b60405180910390fd5b6001600360008473ffffffffffffffffffffffffffffffffffffffff1673ffffffffffffffffffffffffffffffffffffffff16815260200190815260200160002060008282540192505081905550816002600083815260200190815260200160002060006101000a81548173ffffffffffffffffffffffffffffffffffffffff021916908373ffffffffffffffffffffffffffffffffffffffff160217905550808273ffffffffffffffffffffffffffffffffffffffff16600073ffffffffffffffffffffffffffffffffffffffff167fddf252ad1be2c89b69c2b068fc378daa952ba7f163c4a11628f55a4df523b3ef60405160405180910390a46125e0600083836001612111565b5050565b6000808273ffffffffffffffffffffffffffffffffffffffff163b119050919050565b600080600090507a184f03e93ff9f4daa797ed6e38ed64bf6a1f0100000000000000008310612665577a184f03e93ff9f4daa797ed6e38ed64bf6a1f010000000000000000838161265b5761265a613c4b565b5b0492506040810190505b6d04ee2d6d415b85acef810000000083106126a2576d04ee2d6d415b85acef8100000000838161269857612697613c4b565b5b0492506020810190505b662386f26fc1000083106126d157662386f26fc1000083816126c7576126c6613c4b565b5b0492506010810190505b6305f5e10083106126fa576305f5e10083816126f0576126ef613c4b565b5b0492506008810190505b612710831061271f57612710838161271557612714613c4b565b5b0492506004810190505b60648310612742576064838161273857612737613c4b565b5b0492506002810190505b600a8310612751576001810190505b80915050919050565b6040518060a0016040528060008152602001600073ffffffffffffffffffffffffffffffffffffffff168152602001600073ffffffffffffffffffffffffffffffffffffffff168152602001600081526020016000151581525090565b6000604051905090565b600080fd5b600080fd5b60007fffffffff0000000000000000000000000000000000000000000000000000000082169050919050565b612800816127cb565b811461280b57600080fd5b50565b60008135905061281d816127f7565b92915050565b600060208284031215612839576128386127c1565b5b60006128478482850161280e565b91505092915050565b60008115159050919050565b61286581612850565b82525050565b6000602082019050612880600083018461285c565b92915050565b600081519050919050565b600082825260208201905092915050565b60005b838110156128c05780820151818401526020810190506128a5565b60008484015250505050565b6000601f19601f8301169050919050565b60006128e882612886565b6128f28185612891565b93506129028185602086016128a2565b61290b816128cc565b840191505092915050565b6000602082019050818103600083015261293081846128dd565b905092915050565b6000819050919050565b61294b81612938565b811461295657600080fd5b50565b60008135905061296881612942565b92915050565b600060208284031215612984576129836127c1565b5b600061299284828501612959565b91505092915050565b6129a481612938565b82525050565b600073ffffffffffffffffffffffffffffffffffffffff82169050919050565b60006129d5826129aa565b9050919050565b6129e5816129ca565b82525050565b6129f481612850565b82525050565b60a082016000820151612a10600085018261299b565b506020820151612a2360208501826129dc565b506040820151612a3660408501826129dc565b506060820151612a49606085018261299b565b506080820151612a5c60808501826129eb565b50505050565b600060a082019050612a7760008301846129fa565b92915050565b612a86816129ca565b82525050565b6000602082019050612aa16000830184612a7d565b92915050565b612ab0816129ca565b8114612abb57600080fd5b50565b600081359050612acd81612aa7565b92915050565b60008060408385031215612aea57612ae96127c1565b5b6000612af885828601612abe565b9250506020612b0985828601612959565b9150509250929050565b600081519050919050565b600082825260208201905092915050565b6000819050602082019050919050565b60a082016000820151612b55600085018261299b565b506020820151612b6860208501826129dc565b506040820151612b7b60408501826129dc565b506060820151612b8e606085018261299b565b506080820151612ba160808501826129eb565b50505050565b6000612bb38383612b3f565b60a08301905092915050565b6000602082019050919050565b6000612bd782612b13565b612be18185612b1e565b9350612bec83612b2f565b8060005b83811015612c1d578151612c048882612ba7565b9750612c0f83612bbf565b925050600181019050612bf0565b5085935050505092915050565b60006020820190508181036000830152612c448184612bcc565b905092915050565b600080600060608486031215612c6557612c646127c1565b5b6000612c7386828701612abe565b9350506020612c8486828701612abe565b9250506040612c9586828701612959565b9150509250925092565b60008060408385031215612cb657612cb56127c1565b5b6000612cc485828601612959565b9250506020612cd585828601612959565b9150509250929050565b600060208284031215612cf557612cf46127c1565b5b6000612d0384828501612abe565b91505092915050565b612d1581612938565b82525050565b6000602082019050612d306000830184612d0c565b92915050565b612d3f81612850565b8114612d4a57600080fd5b50565b600081359050612d5c81612d36565b92915050565b60008060408385031215612d7957612d786127c1565b5b6000612d8785828601612abe565b9250506020612d9885828601612d4d565b9150509250929050565b600080fd5b600080fd5b7f4e487b7100000000000000000000000000000000000000000000000000000000600052604160045260246000fd5b612de4826128cc565b810181811067ffffffffffffffff82111715612e0357612e02612dac565b5b80604052505050565b6000612e166127b7565b9050612e228282612ddb565b919050565b600067ffffffffffffffff821115612e4257612e41612dac565b5b612e4b826128cc565b9050602081019050919050565b82818337600083830152505050565b6000612e7a612e7584612e27565b612e0c565b905082815260208101848484011115612e9657612e95612da7565b5b612ea1848285612e58565b509392505050565b600082601f830112612ebe57612ebd612da2565b5b8135612ece848260208601612e67565b91505092915050565b60008060408385031215612eee57612eed6127c1565b5b600083013567ffffffffffffffff811115612f0c57612f0b6127c6565b5b612f1885828601612ea9565b9250506020612f2985828601612959565b9150509250929050565b600067ffffffffffffffff821115612f4e57612f4d612dac565b5b612f57826128cc565b9050602081019050919050565b6000612f77612f7284612f33565b612e0c565b905082815260208101848484011115612f9357612f92612da7565b5b612f9e848285612e58565b509392505050565b600082601f830112612fbb57612fba612da2565b5b8135612fcb848260208601612f64565b91505092915050565b60008060008060808587031215612fee57612fed6127c1565b5b6000612ffc87828801612abe565b945050602061300d87828801612abe565b935050604061301e87828801612959565b925050606085013567ffffffffffffffff81111561303f5761303e6127c6565b5b61304b87828801612fa6565b91505092959194509250565b6000806040838503121561306e5761306d6127c1565b5b600061307c85828601612abe565b925050602061308d85828601612abe565b9150509250929050565b7f4e487b7100000000000000000000000000000000000000000000000000000000600052602260045260246000fd5b600060028204905060018216806130de57607f821691505b6020821081036130f1576130f0613097565b5b50919050565b7f4552433732313a20617070726f76616c20746f2063757272656e74206f776e6560008201527f7200000000000000000000000000000000000000000000000000000000000000602082015250565b6000613153602183612891565b915061315e826130f7565b604082019050919050565b6000602082019050818103600083015261318281613146565b9050919050565b7f4552433732313a20617070726f76652063616c6c6572206973206e6f7420746f60008201527f6b656e206f776e6572206f7220617070726f76656420666f7220616c6c000000602082015250565b60006131e5603d83612891565b91506131f082613189565b604082019050919050565b60006020820190508181036000830152613214816131d8565b9050919050565b7f506c65617365207061792074686520636f727265637420707269636500000000600082015250565b6000613251601c83612891565b915061325c8261321b565b602082019050919050565b6000602082019050818103600083015261328081613244565b9050919050565b7f4e487b7100000000000000000000000000000000000000000000000000000000600052601160045260246000fd5b60006132c182612938565b91506132cc83612938565b92508282019050808211156132e4576132e3613287565b5b92915050565b60006132f582612938565b91507fffffffffffffffffffffffffffffffffffffffffffffffffffffffffffffffff820361332757613326613287565b5b600182019050919050565b7f4e487b7100000000000000000000000000000000000000000000000000000000600052603260045260246000fd5b7f4552433732313a2063616c6c6572206973206e6f7420746f6b656e206f776e6560008201527f72206f7220617070726f76656400000000000000000000000000000000000000602082015250565b60006133bd602d83612891565b91506133c882613361565b604082019050919050565b600060208201905081810360008301526133ec816133b0565b9050919050565b7f4552433732313a20696e76616c696420746f6b656e2049440000000000000000600082015250565b6000613429601883612891565b9150613434826133f3565b602082019050919050565b600060208201905081810360008301526134588161341c565b9050919050565b7f53656e6420636f72726563742070726963650000000000000000000000000000600082015250565b6000613495601283612891565b91506134a08261345f565b602082019050919050565b600060208201905081810360008301526134c481613488565b9050919050565b60006080820190506134e06000830187612a7d565b6134ed6020830186612a7d565b6134fa6040830185612d0c565b613507606083018461285c565b95945050505050565b7f4552433732313a2061646472657373207a65726f206973206e6f74206120766160008201527f6c6964206f776e65720000000000000000000000000000000000000000000000602082015250565b600061356c602983612891565b915061357782613510565b604082019050919050565b6000602082019050818103600083015261359b8161355f565b9050919050565b600081905092915050565b60006135b882612886565b6135c281856135a2565b93506135d28185602086016128a2565b80840191505092915050565b60006135ea82856135ad565b91506135f682846135ad565b91508190509392505050565b7f4552433732313a207472616e736665722066726f6d20696e636f72726563742060008201527f6f776e6572000000000000000000000000000000000000000000000000000000602082015250565b600061365e602583612891565b915061366982613602565b604082019050919050565b6000602082019050818103600083015261368d81613651565b9050919050565b7f4552433732313a207472616e7366657220746f20746865207a65726f2061646460008201527f7265737300000000000000000000000000000000000000000000000000000000602082015250565b60006136f0602483612891565b91506136fb82613694565b604082019050919050565b6000602082019050818103600083015261371f816136e3565b9050919050565b7f4552433732313a20617070726f766520746f2063616c6c657200000000000000600082015250565b600061375c601983612891565b915061376782613726565b602082019050919050565b6000602082019050818103600083015261378b8161374f565b9050919050565b7f45524337323155524953746f726167653a2055524920736574206f66206e6f6e60008201527f6578697374656e7420746f6b656e000000000000000000000000000000000000602082015250565b60006137ee602e83612891565b91506137f982613792565b604082019050919050565b6000602082019050818103600083015261381d816137e1565b9050919050565b60008190508160005260206000209050919050565b60006020601f8301049050919050565b600082821b905092915050565b6000600883026138867fffffffffffffffffffffffffffffffffffffffffffffffffffffffffffffffff82613849565b6138908683613849565b95508019841693508086168417925050509392505050565b6000819050919050565b60006138cd6138c86138c384612938565b6138a8565b612938565b9050919050565b6000819050919050565b6138e7836138b2565b6138fb6138f3826138d4565b848454613856565b825550505050565b600090565b613910613903565b61391b8184846138de565b505050565b5b8181101561393f57613934600082613908565b600181019050613921565b5050565b601f8211156139845761395581613824565b61395e84613839565b8101602085101561396d578190505b61398161397985613839565b830182613920565b50505b505050565b600082821c905092915050565b60006139a760001984600802613989565b1980831691505092915050565b60006139c08383613996565b9150826002028217905092915050565b6139d982612886565b67ffffffffffffffff8111156139f2576139f1612dac565b5b6139fc82546130c6565b613a07828285613943565b600060209050601f831160018114613a3a5760008415613a28578287015190505b613a3285826139b4565b865550613a9a565b601f198416613a4886613824565b60005b82811015613a7057848901518255600182019150602085019450602081019050613a4b565b86831015613a8d5784890151613a89601f891682613996565b8355505b6001600288020188555050505b505050505050565b7f4552433732313a207472616e7366657220746f206e6f6e20455243373231526560008201527f63656976657220696d706c656d656e7465720000000000000000000000000000602082015250565b6000613afe603283612891565b9150613b0982613aa2565b604082019050919050565b60006020820190508181036000830152613b2d81613af1565b9050919050565b6000613b3f82612938565b9150613b4a83612938565b9250828203905081811115613b6257613b61613287565b5b92915050565b600081519050919050565b600082825260208201905092915050565b6000613b8f82613b68565b613b998185613b73565b9350613ba98185602086016128a2565b613bb2816128cc565b840191505092915050565b6000608082019050613bd26000830187612a7d565b613bdf6020830186612a7d565b613bec6040830185612d0c565b8181036060830152613bfe8184613b84565b905095945050505050565b600081519050613c18816127f7565b92915050565b600060208284031215613c3457613c336127c1565b5b6000613c4284828501613c09565b91505092915050565b7f4e487b7100000000000000000000000000000000000000000000000000000000600052601260045260246000fd5b7f4552433732313a206d696e7420746f20746865207a65726f2061646472657373600082015250565b6000613cb0602083612891565b9150613cbb82613c7a565b602082019050919050565b60006020820190508181036000830152613cdf81613ca3565b9050919050565b7f4552433732313a20746f6b656e20616c7265616479206d696e74656400000000600082015250565b6000613d1c601c83612891565b9150613d2782613ce6565b602082019050919050565b60006020820190508181036000830152613d4b81613d0f565b905091905056fea26469706673582212208ad630394cfd7862945a63c887c5fb33fa30493bf229f8ec84a63f89b155e89d64736f6c63430008110033",
  "linkReferences": {},
  "deployedLinkReferences": {}
}