{
  "_format": "hh-sol-artifact-1",
  "contractName": "NFTmarketplace",
  "sourceName": "contracts/NFTmarketplace.sol",
  "abi": [
    {
      "inputs": [],
      "stateMutability": "nonpayable",
      "type": "constructor"
    },
    {
      "anonymous": false,
      "inputs": [
        {
          "indexed": true,
          "internalType": "address",
          "name": "owner",
          "type": "address"
        },
        {
          "indexed": true,
          "internalType": "address",
          "name": "approved",
          "type": "address"
        },
        {
          "indexed": true,
          "internalType": "uint256",
          "name": "tokenId",
          "type": "uint256"
        }
      ],
      "name": "Approval",
      "type": "event"
    },
    {
      "anonymous": false,
      "inputs": [
        {
          "indexed": true,
          "internalType": "address",
          "name": "owner",
          "type": "address"
        },
        {
          "indexed": true,
          "internalType": "address",
          "name": "operator",
          "type": "address"
        },
        {
          "indexed": false,
          "internalType": "bool",
          "name": "approved",
          "type": "bool"
        }
      ],
      "name": "ApprovalForAll",
      "type": "event"
    },
    {
      "anonymous": false,
      "inputs": [
        {
          "indexed": true,
          "internalType": "uint256",
          "name": "tokenId",
          "type": "uint256"
        },
        {
          "indexed": false,
          "internalType": "address",
          "name": "owner",
          "type": "address"
        },
        {
          "indexed": false,
          "internalType": "address",
          "name": "seller",
          "type": "address"
        },
        {
          "indexed": false,
          "internalType": "uint256",
          "name": "price",
          "type": "uint256"
        },
        {
          "indexed": false,
          "internalType": "bool",
          "name": "currentlyListed",
          "type": "bool"
        }
      ],
      "name": "TokenListedSuccess",
      "type": "event"
    },
    {
      "anonymous": false,
      "inputs": [
        {
          "indexed": true,
          "internalType": "address",
          "name": "from",
          "type": "address"
        },
        {
          "indexed": true,
          "internalType": "address",
          "name": "to",
          "type": "address"
        },
        {
          "indexed": true,
          "internalType": "uint256",
          "name": "tokenId",
          "type": "uint256"
        }
      ],
      "name": "Transfer",
      "type": "event"
    },
    {
      "inputs": [
        {
          "internalType": "uint256",
          "name": "price",
          "type": "uint256"
        },
        {
          "internalType": "uint256",
          "name": "_tokenid",
          "type": "uint256"
        }
      ],
      "name": "Createlistedtoken",
      "outputs": [],
      "stateMutability": "nonpayable",
      "type": "function"
    },
    {
      "inputs": [
        {
          "internalType": "string",
          "name": "tokenURI",
          "type": "string"
        },
        {
          "internalType": "uint256",
          "name": "price",
          "type": "uint256"
        }
      ],
      "name": "Createtoken",
      "outputs": [
        {
          "internalType": "uint256",
          "name": "",
          "type": "uint256"
        }
      ],
      "stateMutability": "nonpayable",
      "type": "function"
    },
    {
      "inputs": [
        {
          "internalType": "address",
          "name": "to",
          "type": "address"
        },
        {
          "internalType": "uint256",
          "name": "tokenId",
          "type": "uint256"
        }
      ],
      "name": "approve",
      "outputs": [],
      "stateMutability": "nonpayable",
      "type": "function"
    },
    {
      "inputs": [
        {
          "internalType": "address",
          "name": "owner",
          "type": "address"
        }
      ],
      "name": "balanceOf",
      "outputs": [
        {
          "internalType": "uint256",
          "name": "",
          "type": "uint256"
        }
      ],
      "stateMutability": "view",
      "type": "function"
    },
    {
      "inputs": [
        {
          "internalType": "uint256",
          "name": "tokenid",
          "type": "uint256"
        }
      ],
      "name": "executesale",
      "outputs": [],
      "stateMutability": "payable",
      "type": "function"
    },
    {
      "inputs": [],
      "name": "getAllnft",
      "outputs": [
        {
          "components": [
            {
              "internalType": "uint256",
              "name": "tokeid",
              "type": "uint256"
            },
            {
              "internalType": "address",
              "name": "owner",
              "type": "address"
            },
            {
              "internalType": "address",
              "name": "seller",
              "type": "address"
            },
            {
              "internalType": "uint256",
              "name": "price",
              "type": "uint256"
            },
            {
              "internalType": "bool",
              "name": "islisted",
              "type": "bool"
            }
          ],
          "internalType": "struct NFTmarketplace.ListToken[]",
          "name": "",
          "type": "tuple[]"
        }
      ],
      "stateMutability": "view",
      "type": "function"
    },
    {
      "inputs": [
        {
          "internalType": "uint256",
          "name": "tokenId",
          "type": "uint256"
        }
      ],
      "name": "getApproved",
      "outputs": [
        {
          "internalType": "address",
          "name": "",
          "type": "address"
        }
      ],
      "stateMutability": "view",
      "type": "function"
    },
    {
      "inputs": [],
      "name": "getLatestidtotoken",
      "outputs": [
        {
          "components": [
            {
              "internalType": "uint256",
              "name": "tokeid",
              "type": "uint256"
            },
            {
              "internalType": "address",
              "name": "owner",
              "type": "address"
            },
            {
              "internalType": "address",
              "name": "seller",
              "type": "address"
            },
            {
              "internalType": "uint256",
              "name": "price",
              "type": "uint256"
            },
            {
              "internalType": "bool",
              "name": "islisted",
              "type": "bool"
            }
          ],
          "internalType": "struct NFTmarketplace.ListToken",
          "name": "",
          "type": "tuple"
        }
      ],
      "stateMutability": "view",
      "type": "function"
    },
    {
      "inputs": [
        {
          "internalType": "uint256",
          "name": "_tokenid",
          "type": "uint256"
        }
      ],
      "name": "getListedtokenforid",
      "outputs": [
        {
          "components": [
            {
              "internalType": "uint256",
              "name": "tokeid",
              "type": "uint256"
            },
            {
              "internalType": "address",
              "name": "owner",
              "type": "address"
            },
            {
              "internalType": "address",
              "name": "seller",
              "type": "address"
            },
            {
              "internalType": "uint256",
              "name": "price",
              "type": "uint256"
            },
            {
              "internalType": "bool",
              "name": "islisted",
              "type": "bool"
            }
          ],
          "internalType": "struct NFTmarketplace.ListToken",
          "name": "",
          "type": "tuple"
        }
      ],
      "stateMutability": "view",
      "type": "function"
    },
    {
      "inputs": [],
      "name": "getMynft",
      "outputs": [
        {
          "components": [
            {
              "internalType": "uint256",
              "name": "tokeid",
              "type": "uint256"
            },
            {
              "internalType": "address",
              "name": "owner",
              "type": "address"
            },
            {
              "internalType": "address",
              "name": "seller",
              "type": "address"
            },
            {
              "internalType": "uint256",
              "name": "price",
              "type": "uint256"
            },
            {
              "internalType": "bool",
              "name": "islisted",
              "type": "bool"
            }
          ],
          "internalType": "struct NFTmarketplace.ListToken[]",
          "name": "",
          "type": "tuple[]"
        }
      ],
      "stateMutability": "view",
      "type": "function"
    },
    {
      "inputs": [
        {
          "internalType": "address",
          "name": "owner",
          "type": "address"
        },
        {
          "internalType": "address",
          "name": "operator",
          "type": "address"
        }
      ],
      "name": "isApprovedForAll",
      "outputs": [
        {
          "internalType": "bool",
          "name": "",
          "type": "bool"
        }
      ],
      "stateMutability": "view",
      "type": "function"
    },
    {
      "inputs": [],
      "name": "name",
      "outputs": [
        {
          "internalType": "string",
          "name": "",
          "type": "string"
        }
      ],
      "stateMutability": "view",
      "type": "function"
    },
    {
      "inputs": [
        {
          "internalType": "uint256",
          "name": "tokenId",
          "type": "uint256"
        }
      ],
      "name": "ownerOf",
      "outputs": [
        {
          "internalType": "address",
          "name": "",
          "type": "address"
        }
      ],
      "stateMutability": "view",
      "type": "function"
    },
    {
      "inputs": [
        {
          "internalType": "address",
          "name": "from",
          "type": "address"
        },
        {
          "internalType": "address",
          "name": "to",
          "type": "address"
        },
        {
          "internalType": "uint256",
          "name": "tokenId",
          "type": "uint256"
        }
      ],
      "name": "safeTransferFrom",
      "outputs": [],
      "stateMutability": "nonpayable",
      "type": "function"
    },
    {
      "inputs": [
        {
          "internalType": "address",
          "name": "from",
          "type": "address"
        },
        {
          "internalType": "address",
          "name": "to",
          "type": "address"
        },
        {
          "internalType": "uint256",
          "name": "tokenId",
          "type": "uint256"
        },
        {
          "internalType": "bytes",
          "name": "data",
          "type": "bytes"
        }
      ],
      "name": "safeTransferFrom",
      "outputs": [],
      "stateMutability": "nonpayable",
      "type": "function"
    },
    {
      "inputs": [
        {
          "internalType": "address",
          "name": "operator",
          "type": "address"
        },
        {
          "internalType": "bool",
          "name": "approved",
          "type": "bool"
        }
      ],
      "name": "setApprovalForAll",
      "outputs": [],
      "stateMutability": "nonpayable",
      "type": "function"
    },
    {
      "inputs": [
        {
          "internalType": "bytes4",
          "name": "interfaceId",
          "type": "bytes4"
        }
      ],
      "name": "supportsInterface",
      "outputs": [
        {
          "internalType": "bool",
          "name": "",
          "type": "bool"
        }
      ],
      "stateMutability": "view",
      "type": "function"
    },
    {
      "inputs": [],
      "name": "symbol",
      "outputs": [
        {
          "internalType": "string",
          "name": "",
          "type": "string"
        }
      ],
      "stateMutability": "view",
      "type": "function"
    },
    {
      "inputs": [
        {
          "internalType": "uint256",
          "name": "tokenId",
          "type": "uint256"
        }
      ],
      "name": "tokenURI",
      "outputs": [
        {
          "internalType": "string",
          "name": "",
          "type": "string"
        }
      ],
      "stateMutability": "view",
      "type": "function"
    },
    {
      "inputs": [
        {
          "internalType": "address",
          "name": "from",
          "type": "address"
        },
        {
          "internalType": "address",
          "name": "to",
          "type": "address"
        },
        {
          "internalType": "uint256",
          "name": "tokenId",
          "type": "uint256"
        }
      ],
      "name": "transferFrom",
      "outputs": [],
      "stateMutability": "nonpayable",
      "type": "function"
    }
  ],
  "bytecode": "0x60806040523480156200001157600080fd5b506040518060400160405280600581526020017f424c4f434b0000000000000000000000000000000000000000000000000000008152506040518060400160405280600381526020017f424c43000000000000000000000000000000000000000000000000000000000081525081600090816200008f919062000365565b508060019081620000a1919062000365565b50505033600960006101000a81548173ffffffffffffffffffffffffffffffffffffffff021916908373ffffffffffffffffffffffffffffffffffffffff1602179055506200044c565b600081519050919050565b7f4e487b7100000000000000000000000000000000000000000000000000000000600052604160045260246000fd5b7f4e487b7100000000000000000000000000000000000000000000000000000000600052602260045260246000fd5b600060028204905060018216806200016d57607f821691505b60208210810362000183576200018262000125565b5b50919050565b60008190508160005260206000209050919050565b60006020601f8301049050919050565b600082821b905092915050565b600060088302620001ed7fffffffffffffffffffffffffffffffffffffffffffffffffffffffffffffffff82620001ae565b620001f98683620001ae565b95508019841693508086168417925050509392505050565b6000819050919050565b6000819050919050565b600062000246620002406200023a8462000211565b6200021b565b62000211565b9050919050565b6000819050919050565b620002628362000225565b6200027a62000271826200024d565b848454620001bb565b825550505050565b600090565b6200029162000282565b6200029e81848462000257565b505050565b5b81811015620002c657620002ba60008262000287565b600181019050620002a4565b5050565b601f8211156200031557620002df8162000189565b620002ea846200019e565b81016020851015620002fa578190505b6200031262000309856200019e565b830182620002a3565b50505b505050565b600082821c905092915050565b60006200033a600019846008026200031a565b1980831691505092915050565b600062000355838362000327565b9150826002028217905092915050565b6200037082620000eb565b67ffffffffffffffff8111156200038c576200038b620000f6565b5b62000398825462000154565b620003a5828285620002ca565b600060209050601f831160018114620003dd5760008415620003c8578287015190505b620003d4858262000347565b86555062000444565b601f198416620003ed8662000189565b60005b828110156200041757848901518255600182019150602085019450602081019050620003f0565b8683101562000437578489015162000433601f89168262000327565b8355505b6001600288020188555050505b505050505050565b613dc3806200045c6000396000f3fe60806040526004361061011f5760003560e01c80634da676d6116100a0578063a22cb46511610064578063a22cb465146103ec578063a38964e814610415578063b88d4fde14610452578063c87b56dd1461047b578063e985e9c5146104b85761011f565b80634da676d6146102f35780636352211e1461031e5780636a4801831461035b57806370a082311461038457806395d89b41146103c15761011f565b80630e938ec3116100e75780630e938ec31461022f5780630ee9cbf61461024b57806323b872dd146102765780633ef201af1461029f57806342842e0e146102ca5761011f565b806301ffc9a71461012457806306fdde031461016157806307280fad1461018c578063081812fc146101c9578063095ea7b314610206575b600080fd5b34801561013057600080fd5b5061014b60048036038101906101469190612838565b6104f5565b6040516101589190612880565b60405180910390f35b34801561016d57600080fd5b506101766105d7565b604051610183919061292b565b60405180910390f35b34801561019857600080fd5b506101b360048036038101906101ae9190612983565b610669565b6040516101c09190612a77565b60405180910390f35b3480156101d557600080fd5b506101f060048036038101906101eb9190612983565b610771565b6040516101fd9190612aa1565b60405180910390f35b34801561021257600080fd5b5061022d60048036038101906102289190612ae8565b6107b7565b005b61024960048036038101906102449190612983565b6108ce565b005b34801561025757600080fd5b50610260610a60565b60405161026d9190612c3f565b60405180910390f35b34801561028257600080fd5b5061029d60048036038101906102989190612c61565b610e37565b005b3480156102ab57600080fd5b506102b4610e97565b6040516102c19190612c3f565b60405180910390f35b3480156102d657600080fd5b506102f160048036038101906102ec9190612c61565b611065565b005b3480156102ff57600080fd5b50610308611085565b6040516103159190612a77565b60405180910390f35b34801561032a57600080fd5b5061034560048036038101906103409190612983565b61119a565b6040516103529190612aa1565b60405180910390f35b34801561036757600080fd5b50610382600480360381019061037d9190612cb4565b611220565b005b34801561039057600080fd5b506103ab60048036038101906103a69190612cf4565b6113df565b6040516103b89190612d30565b60405180910390f35b3480156103cd57600080fd5b506103d6611496565b6040516103e3919061292b565b60405180910390f35b3480156103f857600080fd5b50610413600480360381019061040e9190612d77565b611528565b005b34801561042157600080fd5b5061043c60048036038101906104379190612eec565b61153e565b6040516104499190612d30565b60405180910390f35b34801561045e57600080fd5b5061047960048036038101906104749190612fe9565b611580565b005b34801561048757600080fd5b506104a2600480360381019061049d9190612983565b6115e2565b6040516104af919061292b565b60405180910390f35b3480156104c457600080fd5b506104df60048036038101906104da919061306c565b6116f4565b6040516104ec9190612880565b60405180910390f35b60007f80ac58cd000000000000000000000000000000000000000000000000000000007bffffffffffffffffffffffffffffffffffffffffffffffffffffffff1916827bffffffffffffffffffffffffffffffffffffffffffffffffffffffff191614806105c057507f5b5e139f000000000000000000000000000000000000000000000000000000007bffffffffffffffffffffffffffffffffffffffffffffffffffffffff1916827bffffffffffffffffffffffffffffffffffffffffffffffffffffffff1916145b806105d057506105cf82611788565b5b9050919050565b6060600080546105e6906130db565b80601f0160208091040260200160405190810160405280929190818152602001828054610612906130db565b801561065f5780601f106106345761010080835404028352916020019161065f565b820191906000526020600020905b81548152906001019060200180831161064257829003601f168201915b5050505050905090565b61067161276f565b600a60008381526020019081526020016000206040518060a0016040529081600082015481526020016001820160009054906101000a900473ffffffffffffffffffffffffffffffffffffffff1673ffffffffffffffffffffffffffffffffffffffff1673ffffffffffffffffffffffffffffffffffffffff1681526020016002820160009054906101000a900473ffffffffffffffffffffffffffffffffffffffff1673ffffffffffffffffffffffffffffffffffffffff1673ffffffffffffffffffffffffffffffffffffffff168152602001600382015481526020016004820160009054906101000a900460ff1615151515815250509050919050565b600061077c826117f2565b6004600083815260200190815260200160002060009054906101000a900473ffffffffffffffffffffffffffffffffffffffff169050919050565b60006107c28261119a565b90508073ffffffffffffffffffffffffffffffffffffffff168373ffffffffffffffffffffffffffffffffffffffff1603610832576040517f08c379a00000000000000000000000000000000000000000000000000000000081526004016108299061317e565b60405180910390fd5b8073ffffffffffffffffffffffffffffffffffffffff1661085161183d565b73ffffffffffffffffffffffffffffffffffffffff161480610880575061087f8161087a61183d565b6116f4565b5b6108bf576040517f08c379a00000000000000000000000000000000000000000000000000000000081526004016108b690613210565b60405180910390fd5b6108c98383611845565b505050565b6000600a60008381526020019081526020016000206003015490506000600a600084815260200190815260200160002060020160009054906101000a900473ffffffffffffffffffffffffffffffffffffffff169050813414610966576040517f08c379a000000000000000000000000000000000000000000000000000000000815260040161095d906132a2565b60405180910390fd5b6001600a600085815260200190815260200160002060040160006101000a81548160ff02191690831515021790555033600a600085815260200190815260200160002060020160006101000a81548173ffffffffffffffffffffffffffffffffffffffff021916908373ffffffffffffffffffffffffffffffffffffffff1602179055506109f460086118fe565b6109ff303385611914565b610a0930846107b7565b610a14333085610e37565b8073ffffffffffffffffffffffffffffffffffffffff166108fc349081150290604051600060405180830381858888f19350505050158015610a5a573d6000803e3d6000fd5b50505050565b60606000610a6e6007611c0d565b905060008060005b83811015610b8657600182610a8b91906132f1565b91503373ffffffffffffffffffffffffffffffffffffffff16600a600084815260200190815260200160002060010160009054906101000a900473ffffffffffffffffffffffffffffffffffffffff1673ffffffffffffffffffffffffffffffffffffffff161480610b5e57503373ffffffffffffffffffffffffffffffffffffffff16600a600084815260200190815260200160002060020160009054906101000a900473ffffffffffffffffffffffffffffffffffffffff1673ffffffffffffffffffffffffffffffffffffffff16145b15610b7357600183610b7091906132f1565b92505b8080610b7e90613325565b915050610a76565b5060008267ffffffffffffffff811115610ba357610ba2612dc1565b5b604051908082528060200260200182016040528015610bdc57816020015b610bc961276f565b815260200190600190039081610bc15790505b50905060008060005b86811015610e2a573373ffffffffffffffffffffffffffffffffffffffff16600a6000600184610c1591906132f1565b815260200190815260200160002060010160009054906101000a900473ffffffffffffffffffffffffffffffffffffffff1673ffffffffffffffffffffffffffffffffffffffff161480610cd657503373ffffffffffffffffffffffffffffffffffffffff16600a6000600184610c8c91906132f1565b815260200190815260200160002060020160009054906101000a900473ffffffffffffffffffffffffffffffffffffffff1673ffffffffffffffffffffffffffffffffffffffff16145b15610e1757600181610ce891906132f1565b91506000600a60008481526020019081526020016000209050806040518060a0016040529081600082015481526020016001820160009054906101000a900473ffffffffffffffffffffffffffffffffffffffff1673ffffffffffffffffffffffffffffffffffffffff1673ffffffffffffffffffffffffffffffffffffffff1681526020016002820160009054906101000a900473ffffffffffffffffffffffffffffffffffffffff1673ffffffffffffffffffffffffffffffffffffffff1673ffffffffffffffffffffffffffffffffffffffff168152602001600382015481526020016004820160009054906101000a900460ff161515151581525050858581518110610dfb57610dfa61336d565b5b6020026020010181905250600184610e1391906132f1565b9350505b8080610e2290613325565b915050610be5565b5082965050505050505090565b610e48610e4261183d565b82611c1b565b610e87576040517f08c379a0000000000000000000000000000000000000000000000000000000008152600401610e7e9061340e565b60405180910390fd5b610e92838383611914565b505050565b60606000610ea56007611c0d565b905060008167ffffffffffffffff811115610ec357610ec2612dc1565b5b604051908082528060200260200182016040528015610efc57816020015b610ee961276f565b815260200190600190039081610ee15790505b50905060008060005b8481101561105a57600182610f1a91906132f1565b91506000600a60008481526020019081526020016000209050806040518060a0016040529081600082015481526020016001820160009054906101000a900473ffffffffffffffffffffffffffffffffffffffff1673ffffffffffffffffffffffffffffffffffffffff1673ffffffffffffffffffffffffffffffffffffffff1681526020016002820160009054906101000a900473ffffffffffffffffffffffffffffffffffffffff1673ffffffffffffffffffffffffffffffffffffffff1673ffffffffffffffffffffffffffffffffffffffff168152602001600382015481526020016004820160009054906101000a900460ff16151515158152505085858151811061102d5761102c61336d565b5b6020026020010181905250838061104390613325565b94505050808061105290613325565b915050610f05565b508294505050505090565b61108083838360405180602001604052806000815250611580565b505050565b61108d61276f565b60006110996007611c0d565b9050600a60008281526020019081526020016000206040518060a0016040529081600082015481526020016001820160009054906101000a900473ffffffffffffffffffffffffffffffffffffffff1673ffffffffffffffffffffffffffffffffffffffff1673ffffffffffffffffffffffffffffffffffffffff1681526020016002820160009054906101000a900473ffffffffffffffffffffffffffffffffffffffff1673ffffffffffffffffffffffffffffffffffffffff1673ffffffffffffffffffffffffffffffffffffffff168152602001600382015481526020016004820160009054906101000a900460ff16151515158152505091505090565b6000806111a683611cb0565b9050600073ffffffffffffffffffffffffffffffffffffffff168173ffffffffffffffffffffffffffffffffffffffff1603611217576040517f08c379a000000000000000000000000000000000000000000000000000000000815260040161120e9061347a565b60405180910390fd5b80915050919050565b60008211611263576040517f08c379a000000000000000000000000000000000000000000000000000000000815260040161125a906134e6565b60405180910390fd5b6040518060a001604052808281526020013073ffffffffffffffffffffffffffffffffffffffff1681526020013373ffffffffffffffffffffffffffffffffffffffff16815260200183815260200160011515815250600a60008381526020019081526020016000206000820151816000015560208201518160010160006101000a81548173ffffffffffffffffffffffffffffffffffffffff021916908373ffffffffffffffffffffffffffffffffffffffff16021790555060408201518160020160006101000a81548173ffffffffffffffffffffffffffffffffffffffff021916908373ffffffffffffffffffffffffffffffffffffffff1602179055506060820151816003015560808201518160040160006101000a81548160ff02191690831515021790555090505061139c333083611914565b807f9339409317fd01fabff48b703019016f49159bacc801ae872d2ca637d226e4c030338560016040516113d39493929190613506565b60405180910390a25050565b60008073ffffffffffffffffffffffffffffffffffffffff168273ffffffffffffffffffffffffffffffffffffffff160361144f576040517f08c379a0000000000000000000000000000000000000000000000000000000008152600401611446906135bd565b60405180910390fd5b600360008373ffffffffffffffffffffffffffffffffffffffff1673ffffffffffffffffffffffffffffffffffffffff168152602001908152602001600020549050919050565b6060600180546114a5906130db565b80601f01602080910402602001604051908101604052809291908181526020018280546114d1906130db565b801561151e5780601f106114f35761010080835404028352916020019161151e565b820191906000526020600020905b81548152906001019060200180831161150157829003601f168201915b5050505050905090565b61153a61153361183d565b8383611ced565b5050565b600061154a60076118fe565b60006115566007611c0d565b90506115623382611e59565b61156c8185611e77565b6115768382611220565b8091505092915050565b61159161158b61183d565b83611c1b565b6115d0576040517f08c379a00000000000000000000000000000000000000000000000000000000081526004016115c79061340e565b60405180910390fd5b6115dc84848484611ee4565b50505050565b60606115ed826117f2565b600060066000848152602001908152602001600020805461160d906130db565b80601f0160208091040260200160405190810160405280929190818152602001828054611639906130db565b80156116865780601f1061165b57610100808354040283529160200191611686565b820191906000526020600020905b81548152906001019060200180831161166957829003601f168201915b505050505090506000611697611f40565b905060008151036116ac5781925050506116ef565b6000825111156116e15780826040516020016116c9929190613619565b604051602081830303815290604052925050506116ef565b6116ea84611f57565b925050505b919050565b6000600560008473ffffffffffffffffffffffffffffffffffffffff1673ffffffffffffffffffffffffffffffffffffffff16815260200190815260200160002060008373ffffffffffffffffffffffffffffffffffffffff1673ffffffffffffffffffffffffffffffffffffffff16815260200190815260200160002060009054906101000a900460ff16905092915050565b60007f01ffc9a7000000000000000000000000000000000000000000000000000000007bffffffffffffffffffffffffffffffffffffffffffffffffffffffff1916827bffffffffffffffffffffffffffffffffffffffffffffffffffffffff1916149050919050565b6117fb81611fbf565b61183a576040517f08c379a00000000000000000000000000000000000000000000000000000000081526004016118319061347a565b60405180910390fd5b50565b600033905090565b816004600083815260200190815260200160002060006101000a81548173ffffffffffffffffffffffffffffffffffffffff021916908373ffffffffffffffffffffffffffffffffffffffff160217905550808273ffffffffffffffffffffffffffffffffffffffff166118b88361119a565b73ffffffffffffffffffffffffffffffffffffffff167f8c5be1e5ebec7d5bd14f71427d1e84f3dd0314c0f7b2291e5b200ac8c7c3b92560405160405180910390a45050565b6001816000016000828254019250508190555050565b8273ffffffffffffffffffffffffffffffffffffffff166119348261119a565b73ffffffffffffffffffffffffffffffffffffffff161461198a576040517f08c379a0000000000000000000000000000000000000000000000000000000008152600401611981906136af565b60405180910390fd5b600073ffffffffffffffffffffffffffffffffffffffff168273ffffffffffffffffffffffffffffffffffffffff16036119f9576040517f08c379a00000000000000000000000000000000000000000000000000000000081526004016119f090613741565b60405180910390fd5b611a068383836001612000565b8273ffffffffffffffffffffffffffffffffffffffff16611a268261119a565b73ffffffffffffffffffffffffffffffffffffffff1614611a7c576040517f08c379a0000000000000000000000000000000000000000000000000000000008152600401611a73906136af565b60405180910390fd5b6004600082815260200190815260200160002060006101000a81549073ffffffffffffffffffffffffffffffffffffffff02191690556001600360008573ffffffffffffffffffffffffffffffffffffffff1673ffffffffffffffffffffffffffffffffffffffff168152602001908152602001600020600082825403925050819055506001600360008473ffffffffffffffffffffffffffffffffffffffff1673ffffffffffffffffffffffffffffffffffffffff16815260200190815260200160002060008282540192505081905550816002600083815260200190815260200160002060006101000a81548173ffffffffffffffffffffffffffffffffffffffff021916908373ffffffffffffffffffffffffffffffffffffffff160217905550808273ffffffffffffffffffffffffffffffffffffffff168473ffffffffffffffffffffffffffffffffffffffff167fddf252ad1be2c89b69c2b068fc378daa952ba7f163c4a11628f55a4df523b3ef60405160405180910390a4611c088383836001612126565b505050565b600081600001549050919050565b600080611c278361119a565b90508073ffffffffffffffffffffffffffffffffffffffff168473ffffffffffffffffffffffffffffffffffffffff161480611c695750611c6881856116f4565b5b80611ca757508373ffffffffffffffffffffffffffffffffffffffff16611c8f84610771565b73ffffffffffffffffffffffffffffffffffffffff16145b91505092915050565b60006002600083815260200190815260200160002060009054906101000a900473ffffffffffffffffffffffffffffffffffffffff169050919050565b8173ffffffffffffffffffffffffffffffffffffffff168373ffffffffffffffffffffffffffffffffffffffff1603611d5b576040517f08c379a0000000000000000000000000000000000000000000000000000000008152600401611d52906137ad565b60405180910390fd5b80600560008573ffffffffffffffffffffffffffffffffffffffff1673ffffffffffffffffffffffffffffffffffffffff16815260200190815260200160002060008473ffffffffffffffffffffffffffffffffffffffff1673ffffffffffffffffffffffffffffffffffffffff16815260200190815260200160002060006101000a81548160ff0219169083151502179055508173ffffffffffffffffffffffffffffffffffffffff168373ffffffffffffffffffffffffffffffffffffffff167f17307eab39ab6107e8899845ad3d59bd9653f200f220920489ca2b5937696c3183604051611e4c9190612880565b60405180910390a3505050565b611e7382826040518060200160405280600081525061212c565b5050565b611e8082611fbf565b611ebf576040517f08c379a0000000000000000000000000000000000000000000000000000000008152600401611eb69061383f565b60405180910390fd5b80600660008481526020019081526020016000209081611edf9190613a0b565b505050565b611eef848484611914565b611efb84848484612187565b611f3a576040517f08c379a0000000000000000000000000000000000000000000000000000000008152600401611f3190613b4f565b60405180910390fd5b50505050565b606060405180602001604052806000815250905090565b6060611f62826117f2565b6000611f6c611f40565b90506000815111611f8c5760405180602001604052806000815250611fb7565b80611f968461230e565b604051602001611fa7929190613619565b6040516020818303038152906040525b915050919050565b60008073ffffffffffffffffffffffffffffffffffffffff16611fe183611cb0565b73ffffffffffffffffffffffffffffffffffffffff1614159050919050565b600181111561212057600073ffffffffffffffffffffffffffffffffffffffff168473ffffffffffffffffffffffffffffffffffffffff16146120945780600360008673ffffffffffffffffffffffffffffffffffffffff1673ffffffffffffffffffffffffffffffffffffffff168152602001908152602001600020600082825461208c9190613b6f565b925050819055505b600073ffffffffffffffffffffffffffffffffffffffff168373ffffffffffffffffffffffffffffffffffffffff161461211f5780600360008573ffffffffffffffffffffffffffffffffffffffff1673ffffffffffffffffffffffffffffffffffffffff168152602001908152602001600020600082825461211791906132f1565b925050819055505b5b50505050565b50505050565b61213683836123dc565b6121436000848484612187565b612182576040517f08c379a000000000000000000000000000000000000000000000000000000000815260040161217990613b4f565b60405180910390fd5b505050565b60006121a88473ffffffffffffffffffffffffffffffffffffffff166125f9565b15612301578373ffffffffffffffffffffffffffffffffffffffff1663150b7a026121d161183d565b8786866040518563ffffffff1660e01b81526004016121f39493929190613bf8565b6020604051808303816000875af192505050801561222f57506040513d601f19601f8201168201806040525081019061222c9190613c59565b60015b6122b1573d806000811461225f576040519150601f19603f3d011682016040523d82523d6000602084013e612264565b606091505b5060008151036122a9576040517f08c379a00000000000000000000000000000000000000000000000000000000081526004016122a090613b4f565b60405180910390fd5b805181602001fd5b63150b7a0260e01b7bffffffffffffffffffffffffffffffffffffffffffffffffffffffff1916817bffffffffffffffffffffffffffffffffffffffffffffffffffffffff191614915050612306565b600190505b949350505050565b60606000600161231d8461261c565b01905060008167ffffffffffffffff81111561233c5761233b612dc1565b5b6040519080825280601f01601f19166020018201604052801561236e5781602001600182028036833780820191505090505b509050600082602001820190505b6001156123d1578080600190039150507f3031323334353637383961626364656600000000000000000000000000000000600a86061a8153600a85816123c5576123c4613c86565b5b0494506000850361237c575b819350505050919050565b600073ffffffffffffffffffffffffffffffffffffffff168273ffffffffffffffffffffffffffffffffffffffff160361244b576040517f08c379a000000000000000000000000000000000000000000000000000000000815260040161244290613d01565b60405180910390fd5b61245481611fbf565b15612494576040517f08c379a000000000000000000000000000000000000000000000000000000000815260040161248b90613d6d565b60405180910390fd5b6124a2600083836001612000565b6124ab81611fbf565b156124eb576040517f08c379a00000000000000000000000000000000000000000000000000000000081526004016124e290613d6d565b60405180910390fd5b6001600360008473ffffffffffffffffffffffffffffffffffffffff1673ffffffffffffffffffffffffffffffffffffffff16815260200190815260200160002060008282540192505081905550816002600083815260200190815260200160002060006101000a81548173ffffffffffffffffffffffffffffffffffffffff021916908373ffffffffffffffffffffffffffffffffffffffff160217905550808273ffffffffffffffffffffffffffffffffffffffff16600073ffffffffffffffffffffffffffffffffffffffff167fddf252ad1be2c89b69c2b068fc378daa952ba7f163c4a11628f55a4df523b3ef60405160405180910390a46125f5600083836001612126565b5050565b6000808273ffffffffffffffffffffffffffffffffffffffff163b119050919050565b600080600090507a184f03e93ff9f4daa797ed6e38ed64bf6a1f010000000000000000831061267a577a184f03e93ff9f4daa797ed6e38ed64bf6a1f01000000000000000083816126705761266f613c86565b5b0492506040810190505b6d04ee2d6d415b85acef810000000083106126b7576d04ee2d6d415b85acef810000000083816126ad576126ac613c86565b5b0492506020810190505b662386f26fc1000083106126e657662386f26fc1000083816126dc576126db613c86565b5b0492506010810190505b6305f5e100831061270f576305f5e100838161270557612704613c86565b5b0492506008810190505b612710831061273457612710838161272a57612729613c86565b5b0492506004810190505b60648310612757576064838161274d5761274c613c86565b5b0492506002810190505b600a8310612766576001810190505b80915050919050565b6040518060a0016040528060008152602001600073ffffffffffffffffffffffffffffffffffffffff168152602001600073ffffffffffffffffffffffffffffffffffffffff168152602001600081526020016000151581525090565b6000604051905090565b600080fd5b600080fd5b60007fffffffff0000000000000000000000000000000000000000000000000000000082169050919050565b612815816127e0565b811461282057600080fd5b50565b6000813590506128328161280c565b92915050565b60006020828403121561284e5761284d6127d6565b5b600061285c84828501612823565b91505092915050565b60008115159050919050565b61287a81612865565b82525050565b60006020820190506128956000830184612871565b92915050565b600081519050919050565b600082825260208201905092915050565b60005b838110156128d55780820151818401526020810190506128ba565b60008484015250505050565b6000601f19601f8301169050919050565b60006128fd8261289b565b61290781856128a6565b93506129178185602086016128b7565b612920816128e1565b840191505092915050565b6000602082019050818103600083015261294581846128f2565b905092915050565b6000819050919050565b6129608161294d565b811461296b57600080fd5b50565b60008135905061297d81612957565b92915050565b600060208284031215612999576129986127d6565b5b60006129a78482850161296e565b91505092915050565b6129b98161294d565b82525050565b600073ffffffffffffffffffffffffffffffffffffffff82169050919050565b60006129ea826129bf565b9050919050565b6129fa816129df565b82525050565b612a0981612865565b82525050565b60a082016000820151612a2560008501826129b0565b506020820151612a3860208501826129f1565b506040820151612a4b60408501826129f1565b506060820151612a5e60608501826129b0565b506080820151612a716080850182612a00565b50505050565b600060a082019050612a8c6000830184612a0f565b92915050565b612a9b816129df565b82525050565b6000602082019050612ab66000830184612a92565b92915050565b612ac5816129df565b8114612ad057600080fd5b50565b600081359050612ae281612abc565b92915050565b60008060408385031215612aff57612afe6127d6565b5b6000612b0d85828601612ad3565b9250506020612b1e8582860161296e565b9150509250929050565b600081519050919050565b600082825260208201905092915050565b6000819050602082019050919050565b60a082016000820151612b6a60008501826129b0565b506020820151612b7d60208501826129f1565b506040820151612b9060408501826129f1565b506060820151612ba360608501826129b0565b506080820151612bb66080850182612a00565b50505050565b6000612bc88383612b54565b60a08301905092915050565b6000602082019050919050565b6000612bec82612b28565b612bf68185612b33565b9350612c0183612b44565b8060005b83811015612c32578151612c198882612bbc565b9750612c2483612bd4565b925050600181019050612c05565b5085935050505092915050565b60006020820190508181036000830152612c598184612be1565b905092915050565b600080600060608486031215612c7a57612c796127d6565b5b6000612c8886828701612ad3565b9350506020612c9986828701612ad3565b9250506040612caa8682870161296e565b9150509250925092565b60008060408385031215612ccb57612cca6127d6565b5b6000612cd98582860161296e565b9250506020612cea8582860161296e565b9150509250929050565b600060208284031215612d0a57612d096127d6565b5b6000612d1884828501612ad3565b91505092915050565b612d2a8161294d565b82525050565b6000602082019050612d456000830184612d21565b92915050565b612d5481612865565b8114612d5f57600080fd5b50565b600081359050612d7181612d4b565b92915050565b60008060408385031215612d8e57612d8d6127d6565b5b6000612d9c85828601612ad3565b9250506020612dad85828601612d62565b9150509250929050565b600080fd5b600080fd5b7f4e487b7100000000000000000000000000000000000000000000000000000000600052604160045260246000fd5b612df9826128e1565b810181811067ffffffffffffffff82111715612e1857612e17612dc1565b5b80604052505050565b6000612e2b6127cc565b9050612e378282612df0565b919050565b600067ffffffffffffffff821115612e5757612e56612dc1565b5b612e60826128e1565b9050602081019050919050565b82818337600083830152505050565b6000612e8f612e8a84612e3c565b612e21565b905082815260208101848484011115612eab57612eaa612dbc565b5b612eb6848285612e6d565b509392505050565b600082601f830112612ed357612ed2612db7565b5b8135612ee3848260208601612e7c565b91505092915050565b60008060408385031215612f0357612f026127d6565b5b600083013567ffffffffffffffff811115612f2157612f206127db565b5b612f2d85828601612ebe565b9250506020612f3e8582860161296e565b9150509250929050565b600067ffffffffffffffff821115612f6357612f62612dc1565b5b612f6c826128e1565b9050602081019050919050565b6000612f8c612f8784612f48565b612e21565b905082815260208101848484011115612fa857612fa7612dbc565b5b612fb3848285612e6d565b509392505050565b600082601f830112612fd057612fcf612db7565b5b8135612fe0848260208601612f79565b91505092915050565b60008060008060808587031215613003576130026127d6565b5b600061301187828801612ad3565b945050602061302287828801612ad3565b93505060406130338782880161296e565b925050606085013567ffffffffffffffff811115613054576130536127db565b5b61306087828801612fbb565b91505092959194509250565b60008060408385031215613083576130826127d6565b5b600061309185828601612ad3565b92505060206130a285828601612ad3565b9150509250929050565b7f4e487b7100000000000000000000000000000000000000000000000000000000600052602260045260246000fd5b600060028204905060018216806130f357607f821691505b602082108103613106576131056130ac565b5b50919050565b7f4552433732313a20617070726f76616c20746f2063757272656e74206f776e6560008201527f7200000000000000000000000000000000000000000000000000000000000000602082015250565b60006131686021836128a6565b91506131738261310c565b604082019050919050565b600060208201905081810360008301526131978161315b565b9050919050565b7f4552433732313a20617070726f76652063616c6c6572206973206e6f7420746f60008201527f6b656e206f776e6572206f7220617070726f76656420666f7220616c6c000000602082015250565b60006131fa603d836128a6565b91506132058261319e565b604082019050919050565b60006020820190508181036000830152613229816131ed565b9050919050565b7f506c65617365207375626d6974207468652061736b696e67207072696365206960008201527f6e206f7264657220746f20636f6d706c65746520746865207075726368617365602082015250565b600061328c6040836128a6565b915061329782613230565b604082019050919050565b600060208201905081810360008301526132bb8161327f565b9050919050565b7f4e487b7100000000000000000000000000000000000000000000000000000000600052601160045260246000fd5b60006132fc8261294d565b91506133078361294d565b925082820190508082111561331f5761331e6132c2565b5b92915050565b60006133308261294d565b91507fffffffffffffffffffffffffffffffffffffffffffffffffffffffffffffffff8203613362576133616132c2565b5b600182019050919050565b7f4e487b7100000000000000000000000000000000000000000000000000000000600052603260045260246000fd5b7f4552433732313a2063616c6c6572206973206e6f7420746f6b656e206f776e6560008201527f72206f7220617070726f76656400000000000000000000000000000000000000602082015250565b60006133f8602d836128a6565b91506134038261339c565b604082019050919050565b60006020820190508181036000830152613427816133eb565b9050919050565b7f4552433732313a20696e76616c696420746f6b656e2049440000000000000000600082015250565b60006134646018836128a6565b915061346f8261342e565b602082019050919050565b6000602082019050818103600083015261349381613457565b9050919050565b7f53656e6420636f72726563742070726963650000000000000000000000000000600082015250565b60006134d06012836128a6565b91506134db8261349a565b602082019050919050565b600060208201905081810360008301526134ff816134c3565b9050919050565b600060808201905061351b6000830187612a92565b6135286020830186612a92565b6135356040830185612d21565b6135426060830184612871565b95945050505050565b7f4552433732313a2061646472657373207a65726f206973206e6f74206120766160008201527f6c6964206f776e65720000000000000000000000000000000000000000000000602082015250565b60006135a76029836128a6565b91506135b28261354b565b604082019050919050565b600060208201905081810360008301526135d68161359a565b9050919050565b600081905092915050565b60006135f38261289b565b6135fd81856135dd565b935061360d8185602086016128b7565b80840191505092915050565b600061362582856135e8565b915061363182846135e8565b91508190509392505050565b7f4552433732313a207472616e736665722066726f6d20696e636f72726563742060008201527f6f776e6572000000000000000000000000000000000000000000000000000000602082015250565b60006136996025836128a6565b91506136a48261363d565b604082019050919050565b600060208201905081810360008301526136c88161368c565b9050919050565b7f4552433732313a207472616e7366657220746f20746865207a65726f2061646460008201527f7265737300000000000000000000000000000000000000000000000000000000602082015250565b600061372b6024836128a6565b9150613736826136cf565b604082019050919050565b6000602082019050818103600083015261375a8161371e565b9050919050565b7f4552433732313a20617070726f766520746f2063616c6c657200000000000000600082015250565b60006137976019836128a6565b91506137a282613761565b602082019050919050565b600060208201905081810360008301526137c68161378a565b9050919050565b7f45524337323155524953746f726167653a2055524920736574206f66206e6f6e60008201527f6578697374656e7420746f6b656e000000000000000000000000000000000000602082015250565b6000613829602e836128a6565b9150613834826137cd565b604082019050919050565b600060208201905081810360008301526138588161381c565b9050919050565b60008190508160005260206000209050919050565b60006020601f8301049050919050565b600082821b905092915050565b6000600883026138c17fffffffffffffffffffffffffffffffffffffffffffffffffffffffffffffffff82613884565b6138cb8683613884565b95508019841693508086168417925050509392505050565b6000819050919050565b60006139086139036138fe8461294d565b6138e3565b61294d565b9050919050565b6000819050919050565b613922836138ed565b61393661392e8261390f565b848454613891565b825550505050565b600090565b61394b61393e565b613956818484613919565b505050565b5b8181101561397a5761396f600082613943565b60018101905061395c565b5050565b601f8211156139bf576139908161385f565b61399984613874565b810160208510156139a8578190505b6139bc6139b485613874565b83018261395b565b50505b505050565b600082821c905092915050565b60006139e2600019846008026139c4565b1980831691505092915050565b60006139fb83836139d1565b9150826002028217905092915050565b613a148261289b565b67ffffffffffffffff811115613a2d57613a2c612dc1565b5b613a3782546130db565b613a4282828561397e565b600060209050601f831160018114613a755760008415613a63578287015190505b613a6d85826139ef565b865550613ad5565b601f198416613a838661385f565b60005b82811015613aab57848901518255600182019150602085019450602081019050613a86565b86831015613ac85784890151613ac4601f8916826139d1565b8355505b6001600288020188555050505b505050505050565b7f4552433732313a207472616e7366657220746f206e6f6e20455243373231526560008201527f63656976657220696d706c656d656e7465720000000000000000000000000000602082015250565b6000613b396032836128a6565b9150613b4482613add565b604082019050919050565b60006020820190508181036000830152613b6881613b2c565b9050919050565b6000613b7a8261294d565b9150613b858361294d565b9250828203905081811115613b9d57613b9c6132c2565b5b92915050565b600081519050919050565b600082825260208201905092915050565b6000613bca82613ba3565b613bd48185613bae565b9350613be48185602086016128b7565b613bed816128e1565b840191505092915050565b6000608082019050613c0d6000830187612a92565b613c1a6020830186612a92565b613c276040830185612d21565b8181036060830152613c398184613bbf565b905095945050505050565b600081519050613c538161280c565b92915050565b600060208284031215613c6f57613c6e6127d6565b5b6000613c7d84828501613c44565b91505092915050565b7f4e487b7100000000000000000000000000000000000000000000000000000000600052601260045260246000fd5b7f4552433732313a206d696e7420746f20746865207a65726f2061646472657373600082015250565b6000613ceb6020836128a6565b9150613cf682613cb5565b602082019050919050565b60006020820190508181036000830152613d1a81613cde565b9050919050565b7f4552433732313a20746f6b656e20616c7265616479206d696e74656400000000600082015250565b6000613d57601c836128a6565b9150613d6282613d21565b602082019050919050565b60006020820190508181036000830152613d8681613d4a565b905091905056fea2646970667358221220f4a377a504c55ad53cd7677255867e9279d58be7ed238c4c025355a9a1ffbf0764736f6c63430008110033",
  "linkReferences": {},
  "deployedLinkReferences": {}
}